:020000040800F2
:1000000000800120F52200083D2300083D23000860
:100010003D2300083D2300083D23000800000000A8
:100020000000000000000000000000003D23000868
:100030003D230008000000003D230008991000083F
:100040003D2300083D2300083D2300083D23000810
:100050003D2300083D230008E1100008E7100008D8
:10006000ED100008F3100008F91000083D23000807
:100070003D2300083D2300083D2300083D230008E0
:100080003D2300083D2300083D2300083D230008D0
:100090003D2300083D2300083D230008FF10000811
:1000A0003D2300087D0F00083D230008910F000844
:1000B000950F0008A90F0008BD0F00083D23000898
:1000C0003D2300083D2300083D2300083D23000890
:1000D0003D2300081D1300083513000851130008C4
:1000E000151100083D2300083D2300083D230008AA
:1000F0000D1000083D230008211000083D230008D2
:100100003D2300083D230008D10F00083D230008CF
:100110006D13000885130008E50F0008F90F0008AB
:100120003D2300083D2300083D2300083D2300082F
:1001300000000000000000000000000000000000BF
:1001400000000000000000000000000000000000AF
:10015000000000000000000000000000000000009F
:10016000000000000000000000000000000000008F
:10017000000000000000000000000000000000007F
:10018000000000000000000000000000000000006F
:10019000000000000000000000000000000000005F
:1001A000000000000000000000000000000000004F
:1001B000000000000000000000000000000000003F
:1001C000000000000000000000000000000000002F
:1001D000000000000000000000000000000000001F
:0401E0005FF8E0F1F3
:1001E40080F0004002E000BF81F0004142001FBFE8
:1001F4005FEA410392EA030F7FEA226C7FEA236CF1
:100204006AD04FEA1262D2EB1363C1BFD2184140E5
:1002140048404140B8BF5B42192B88BF704710F07B
:10022400004F40F4000020F07F4018BF404211F01E
:10023400004F41F4000121F07F4118BF494292EA86
:10024400030F3FD0A2F1010241FA03FC10EB0C00B2
:10025400C3F1200301FA03F100F0004302D549423F
:1002640060EB4000B0F5000F13D3B0F1807F06D3EC
:1002740040084FEA310102F10102FE2A51D2B1F1E4
:10028400004F40EBC25008BF20F0010040EA0300D9
:100294007047490040EB0000013A28BFB0F5000F59
:1002A400EDD2B0FA80FCACF1080CB2EB0C0200FA0F
:1002B4000CF0AABF00EBC25052421843BCBFD0405E
:1002C4001843704792F0000F81F4000106BF80F4D8
:1002D40000000132013BB5E74FEA41037FEA226C9B
:1002E40018BF7FEA236C21D092EA030F04D092F066
:1002F400000F08BF0846704790EA010F1CBF00209A
:10030400704712F07F4F04D1400028BF40F00040F6
:10031400704712F100723CBF00F50000704700F016
:10032400004343F0FE4040F4000070477FEA22623D
:1003340016BF08467FEA23630146420206BF5FEA0E
:10034400412390EA010F40F4800070474FF000030E
:1003540004E000BF10F0004348BF40425FEA000CD5
:1003640008BF704743F0964301464FF000001CE07D
:1003740050EA010208BF70474FF000030AE000BFD3
:1003840050EA010208BF704711F0004302D5404211
:1003940061EB41015FEA010C02BF84460146002083
:1003A40043F0B64308BFA3F18053A3F50003BCFA9E
:1003B4008CF2083AA3EBC25310DB01FA02FC63444B
:1003C40000FA02FCC2F12002BCF1004F20FA02F252
:1003D40043EB020008BF20F00100704702F1200245
:1003E40001FA02FCC2F1200250EA4C0021FA02F2A6
:1003F40043EB020008BF20EADC7070474FF0FF0CAB
:100404001CEAD0521EBF1CEAD15392EA0C0F93EAA5
:100414000C0F6FD01A4480EA010C400218BF5FEA47
:1004240041211ED04FF0006343EA501043EA5111BA
:10043400A0FB01310CF00040B1F5000F3EBF4900B4
:1004440041EAD3715B0040EA010062F17F02FD2AB8
:100454001DD8B3F1004F40EBC25008BF20F001009B
:10046400704790F0000F0CF0004C08BF49024CEAB2
:10047400502040EA51207F3AC2BFD2F1FF0340EA44
:10048400C250704740F400004FF00003013A5DDCB5
:1004940012F1190FDCBF00F000407047C2F10002F6
:1004A400410021FA02F1C2F1200200FA02FC5FEAE3
:1004B400310040F1000053EA4C0308BF20EADC702D
:1004C400704792F0000F00F0004C02BF400010F49F
:1004D400000F013AF9D040EA0C0093F0000F01F04C
:1004E400004C02BF490011F4000F013BF9D041EA6E
:1004F4000C018FE70CEAD15392EA0C0F18BF93EA70
:100504000C0F0AD030F0004C18BF31F0004CD8D199
:1005140080EA010000F00040704790F0000F17BF20
:1005240090F0004F084691F0000F91F0004F14D066
:1005340092EA0C0F01D142020FD193EA0C0F03D1BE
:100544004B0218BF084608D180EA010000F00040C1
:1005540040F0FE4040F40000704740F0FE4040F49C
:10056400400070474FF0FF0C1CEAD0521EBF1CEA3B
:10057400D15392EA0C0F93EA0C0F69D0A2EB030259
:1005840080EA010C49024FEA402037D04FF08053F3
:1005940043EA111143EA10130CF000408B4238BFB8
:1005A4005B0042F17D024FF4000C8B4224BF5B1AC6
:1005B40040EA0C00B3EB510F24BFA3EB510340EA14
:1005C4005C00B3EB910F24BFA3EB910340EA9C00C2
:1005D400B3EBD10F24BFA3EBD10340EADC001B0132
:1005E40018BF5FEA1C1CE0D1FD2A3FF650AF8B42D6
:1005F40040EBC25008BF20F0010070470CF0004CE3
:100604004CEA50207F32C2BFD2F1FF0340EAC2500D
:10061400704740F400004FF00003013A37E792F0CE
:10062400000F00F0004C02BF400010F4000F013A2C
:10063400F9D040EA0C0093F0000F01F0004C02BF27
:10064400490011F4000F013BF9D041EA0C0195E790
:100654000CEAD15392EA0C0F08D142027FF47DAF29
:1006640093EA0C0F7FF470AF084676E793EA0C0F19
:1006740004D14B023FF44CAF08466EE730F0004C17
:1006840018BF31F0004CCAD130F000427FF45CAFA7
:1006940031F000437FF43CAF5FE700BF4FF0FF3C15
:1006A40006E000BF4FF0010C02E000BF4FF0010C68
:1006B4004DF804CD4FEA40024FEA41037FEA226C31
:1006C40018BF7FEA236C11D001B052EA530C18BF53
:1006D40090EA010F58BFB2EB030088BFC81738BFB8
:1006E4006FEAE17018BF40F0010070477FEA226CA6
:1006F40002D15FEA402C05D17FEA236CE4D15FEAA2
:10070400412CE1D05DF8040B704700BF84460846D5
:100714006146FFE70FB5FFF7C9FF002848BF10F196
:10072400000F0FBD4DF808EDFFF7F4FF0CBF0120DB
:1007340000205DF808FB00BF4DF808EDFFF7EAFF65
:1007440034BF012000205DF808FB00BF4DF808ED20
:10075400FFF7E0FF94BF012000205DF808FB00BF15
:100764004DF808EDFFF7D2FF94BF012000205DF89B
:1007740008FB00BF4DF808EDFFF7C8FF34BF0120A8
:1007840000205DF808FB00BF42000ED2B2F1FE4F1C
:100794000BD34FF09E03B3EB126209D44FEA00234C
:1007A40043F0004323FA02F070474FF00000704713
:1007B40012F1610F01D1420202D14FF0FF307047B4
:1007C4004FF00000704700BF10B5054C237833B9D3
:1007D400044B13B10448AFF300800123237010BD10
:1007E40068000020000000004024000808B5034B06
:1007F4001BB103490348AFF3008008BD00000000AB
:100804006C00002040240008034A044B11681B7844
:100814000B441360704700BF8400002000000020D8
:10082400002808DB01224309034900F01F0082402D
:10083400603341F82320704700E100E0704708B5B9
:10084400FFF7FCFF08BD90F821200346022A06D0DA
:10085400042282630120002283F82020704702686A
:10086400C06B116821F00E011160116821F00101C3
:10087400116001211A6C01FA02F24260002083F82F
:100884002110E8E708B590F82130022B03D00423A7
:100894008363012008BD036843491A6822F00E02ED
:1008A4001A601A6822F001021A60404A934243D93E
:1008B4008B423AD014318B4239D014318B4238D028
:1008C40014318B4225D014318B4225D014318B4204
:1008D40025D0934226D002F56272934225D0143279
:1008E400934224D01432934223D01432934214BF3F
:1008F4004FF480334FF480532D4A5360012380F822
:100904002130002380F82030436B03B19847002046
:10091400C0E74FF48053EFE74FF48033ECE74FF434
:100924008013E9E74FF08073E6E70123E4E710233F
:10093400E2E74FF48073DFE78B422ED01D498B42F0
:100944002DD014318B422CD014318B4219D0143158
:100954008B4219D014318B4219D093421AD0164AC3
:1009640093421AD01432934219D01432934218D0BD
:100974001432934214BF4FF480334FF480530F4A20
:10098400BBE74FF48053FAE74FF48033F7E74FF4B3
:100994008013F4E74FF08073F1E70123EFE71023AE
:1009A400EDE74FF48073EAE708000240800002405C
:1009B400000402401C0002400804024000000240FF
:1009C400044A08B55169014202D0506100F070FB3D
:1009D40008BD00BF0004014070477047036870B54C
:1009E400DD681E690446B1070DD5AA070BD56FF063
:1009F40002021A61012202779B699B0769D000F009
:100A040047FB00232377710710D56A070ED56FF0D3
:100A14000402236820461A61022222779B6913F498
:100A2400407F5CD000F034FB0023237733070FD5DD
:100A340028070DD56FF00802236820461A610422A6
:100A44002277DB69990750D000F022FB002323773B
:100A5400F20610D5EB060ED56FF01002236820467F
:100A64001A6108222277DB6913F4407F43D000F037
:100A74000FFB00232377F00708D5E90706D56FF0AD
:100A84000102236820461A6100F0DFFA320608D515
:100A94002B0606D56FF08002236820461A6100F009
:100AA40032F8700608D5690606D56FF0400223684F
:100AB40020461A61FFF791FFB20622D5AB0620D576
:100AC4006FF0200223682046BDE870401A6100F0F0
:100AD40019B800F0DBFA2046FFF77EFF91E700F03B
:100AE400D5FA2046FFF778FF9EE700F0CFFA2046BC
:100AF400FFF772FFAAE700F0C9FA2046FFF76CFF80
:100B0400B7E770BD70477047026802F10C0353E801
:100B1400003F23F490730C3242E80031026800294C
:100B2400F2D102F1140353E8003F23F0010302F170
:100B3400140C4CE800310029F3D1036B012B0BD1C9
:100B440002F10C0353E8003F23F0100302F10C0CF4
:100B54004CE800310029F3D1202380F842300023EF
:100B64000363704708B50023406AC385C38400F05B
:100B740095FB08BD704790F8423007B5222B42D14F
:100B840081680268B1F5805F836A3FD101690029F9
:100B94003FD15268C2F3080223F8022B8362C38D4B
:100BA400013B9BB2C385002B2DD10268D16821F093
:100BB4002001D160D16821F48071D160516921F0A4
:100BC40001015161202280F842204363026B012A13
:100BD400026828D1036302F10C0353E8003F23F0B9
:100BE400100302F10C0C4CE800310029F3D1136816
:100BF400DB0605D501911368019353680193019BAA
:100C0400818DFFF7B7FF03B05DF804FB39B90169C3
:100C140029B95268D2B21A70836A0133BEE75268A6
:100C240002F07F02F7E700F033FBECE7036873B5EB
:100C34001A6804461607D9685D690AD1960640F118
:100C44008B808D0640F1888002B0BDE87040FFF7CC
:100C540092BF15F001054BD012F0010F02F004030E
:100C640063D11BB1636C43F002036364930749D5FA
:100C7400636C12F0080F43F00403636403D0636CE5
:100C840043F008036364636C002B5FD0920604D5C1
:100C94008B0602D52046FFF76EFF2668204673694F
:100CA400626C03F0400302F0080253EA02054FD0DD
:100CB400FFF72AFF73695E0645D5226802F1140323
:100CC40053E8003F23F04003143242E80031002986
:100CD400F3D1E06B002836D0894B4363FFF7D2FD94
:100CE400002833D0E06B436B02B0BDE87040184776
:100CF40011F4907F30D012F0010F02F0040307D1F9
:100D040090070DD41007BED501F020032B43B5E79F
:100D1400CE050FD4002BF3D19607F3D5002DA7D120
:100D24001507B0D511F0200FA8E7C80502D4002B91
:100D340098D1F1E7636C560743F001036364EBD584
:100D4400002DDDD08EE7204600F0A8FA02B070BD79
:100D540000F0A4FA6564F9E7206B012840F0948060
:100D6400D50640F19180C80640F18E8000220192A0
:100D74001A6801925A680192019A5A6952064DD52D
:100D8400E16B0A68526892B2002ADFD0A08D9042CB
:100D9400DCD9E2858A69202A36D003F10C0252E8B4
:100DA400002F22F4807203F10C0040E80021002996
:100DB400F3D103F1140252E8002F22F0010203F1EF
:100DC400140040E800210029F3D103F1140252E891
:100DD400002F22F0400203F1140040E80021002912
:100DE400F3D1202284F84220216303F10C0252E85B
:100DF400002F22F0100203F10C0040E8002100292A
:100E0400F3D1E06BFFF71FFD02236363E38DA18D34
:100E1400C91A89B22046FFF7ADFE97E7E28DE08D4F
:100E2400A18D80B292B2002890D0891A89B200298B
:100E34008CD003F10C0252E8002F22F4907203F1DB
:100E44000C0545E800200028F3D103F1140252E810
:100E5400002F22F0010203F1140545E800200028C8
:100E6400F3D1202284F84220206303F10C0252E8DB
:100E7400002F22F0100203F10C0545E800200028A1
:100E8400F3D102236363C5E7160628D50D0626D5DC
:100E940094F84120212A7FF459AFA168226AB1F560
:100EA400805F17D12169A9B932F8021BC1F3080187
:100EB40059602262E28C013A92B2E284002A7FF401
:100EC40045AFDA6822F08002DA60DA6842F0400264
:100ED400DA603BE7511C216212785A60EAE7500657
:100EE4007FF534AF4A067FF531AFDA68204622F049
:100EF4004002DA60202384F8413000F0CCF925E781
:100F0400690B000890F8412090F8420010437047A4
:100F14000023C285436422238285026980F842301B
:100F2400816203681AB1DA6842F48072DA605A693D
:100F3400002042F001025A61DA6842F02002DA60CD
:100F4400704770B490F84260202E06D141B13AB196
:100F54000024046370BCFFF7DBBF022070BC704741
:100F64000120FBE7836810B5044613B10322014650
:100F74009847204610BD0000034B186810B1043098
:100F8400FFF72CBD704700BF88000020FFF7F4BFB7
:100F9400034B586810B10430FFF720BD704700BF01
:100FA40088000020034B986810B10430FFF716BD89
:100FB400704700BF88000020034BD86810B104308C
:100FC400FFF70CBD704700BF88000020034B186971
:100FD40010B10430FFF702BD704700BF8800002045
:100FE400034B586910B10430FFF7F8BC704700BFD9
:100FF40088000020034B986910B10430FFF7EEBC61
:10100400704700BF88000020034BD86910B104303A
:10101400FFF7E4BC704700BF88000020FFF7F4BF6F
:10102400826810B50AB901F088F9C368BDE81040B8
:10103400184708B500B9FEE700F016F90068836E9A
:1010440013B16030FFF7ECFF08BDFFF7F2BF10B536
:1010540000B9FEE7037F013B072B10D8DFE803F05C
:1010640004140F100F0F0F12012400F0FDF8006894
:10107400063400EB041083680BB1FFF7D1FF10BDF9
:101084000324F2E70424F0E70224EEE7FFF7DFBFCE
:10109400FFF7DDBF08B5FFF7B7FBFFF7D0FB00F0A4
:1010A400E3F908BD0023C0E90033C0E90233704707
:1010B4000023012803F101020AD11422DBB25343B5
:1010C400054A181D1044816829B11A441369184748
:1010D40013464008EDE77047A80000200120FFF701
:1010E4006FBC0220FFF76CBC0420FFF769BC08202A
:1010F400FFF766BC1020FFF763BC38B50524202534
:10110400A8B2FFF75DFC013C4FEA4505F8D138BDB4
:1011140038B506244FF48065A8B2FFF751FC013CB2
:101124004FEA4505F8D138BD344A08B510460623C0
:1011340000F8043BFFF7B6FF072302F1180013750C
:10114400FFF7B0FF082302F12C0082F82830FFF7E4
:10115400A9FF092302F1400082F83C30FFF7A2FF07
:101164000A23172102F1540082F85030FFF79AFF46
:1011740002F1680082F86410FFF794FF02F17C002A
:1011840082F87810FFF78EFF02F1900082F88C103D
:10119400FFF788FF02F1A40082F8A010FFF782FF96
:1011A40082F8B410282102F1B800FFF77BFF02F1A6
:1011B400CC0082F8C810FFF775FF02F1E00082F856
:1011C400DC10FFF76FFF02F1F40082F8F010FFF774
:1011D40069FF02F5847082F80411FFF763FF02F5DA
:1011E4008E7082F81811FFF75DFFBDE8084002F524
:1011F400987082F82C11FFF755BF00BFA80000209B
:1012040038B5054CA4F5A075143C201DFFF7AAFEC3
:10121400AC42F9D138BD00BFE80100200F4B1A6879
:1012240042F001021A6059680D4A0A405A601A686D
:1012340022F0847222F480321A601A6822F4802226
:101244001A605A6822F4FE025A604FF41F029A6030
:101254004FF00062034B9A60704700BF00100240D9
:101264000000FFF800ED00E00438704708B5074BB4
:1012740090F8652053F82200FFF744FE00F02200A6
:10128400A0F122035842584108BD00BFE8010020E4
:10129400836C04381847C36C0438184730B50446C7
:1012A40050F8043985B01D6815F0010512D00022EC
:1012B40000921A6800925B680093009BFFF7D6FFC8
:1012C40040BB0122204604F1620105B0BDE8304074
:1012D400FFF737BE196811F0020106D001951A68AC
:1012E40001925B680193019BE8E71A6812F004021B
:1012F40006D002911A6802925B680293029BDDE7B2
:1013040019680907DAD503921A6803925B68039394
:10131400039BD3E705B030BD08B52520FFF780FA5D
:10132400024B1868BDE80840FFF780BCE8010020C4
:10133400262008B5FFF774FA034B586818B1BDE8C6
:101344000840FFF773BC08BDE8010020272008B55A
:10135400FFF766FA034B986818B1BDE80840FFF739
:1013640065BC08BDE801002008B53420FFF758FA31
:10137400024BD868BDE80840FFF758BCE8010020DC
:1013840008B53520FFF74CFA024B1869BDE8084050
:10139400FFF74CBCE8010020FEE700001622024BD8
:1013A4004FF0FF301A60704770040020012070472E
:1013B4002DE9F04307460E461546284CDFF8A08079
:1013C400D4F8009087B040F21A21404600F0B6FDF0
:1013D400012815D040F21B21404600F0AFFD012842
:1013E4000ED04FF40771404600F0A8FD012807D045
:1013F4002368A3EB0903042BE5D907B0BDE8F08308
:10140400022001A900F016FC00232A4631460DF102
:101414000F00ADF80C308DF80E50019701F000F874
:101424000F4801A900F012FD03280546E5D02768FE
:101434000B4E2946304600F059FD022809D02946B2
:10144400074800F053FD012802BF2268054B1A60CB
:10145400D3E72368DB1B022BEBD9CEE73403002050
:101464000064004004020020024A13680133136040
:10147400704700BF340300202DE9F04F8DB0FFF713
:10148400CDFE4FF47A72C44B1B68B3FBF2F3013BFD
:10149400B3F1807F80F07E814FF0E022F021536130
:1014A400BE4B002583F823100723956140F20360A7
:1014B400136100F0CFFD40F2046000F0CBFD4FF467
:1014C400005302221021B64800F040FD10230222EE
:1014D4001946B34800F03AFD202302221021B048F7
:1014E40000F034FD012302221021AE4800F02EFD4D
:1014F400022301241A461021AA4800F027FD4FF4C4
:101504000051A74800F073FD1021A54800F06FFDBD
:101514000221A44800F06BFD2021A14800F065FDE4
:101524000121A04800F061FD4FF4C06000F092FD7D
:1015340040F2026000F08EFD40F20E6000F08AFD81
:101544004FF4007303221821974800F0FFFC4FF476
:10155400806303220421944800F0F8FC934800F0CF
:1015640015FE4FF41651914800F050FE29468F485D
:1015740000F074FE29468D4800F078FE29468B4819
:1015840000F07CFE0821894800F085FE042187488C
:1015940000F08BFE854800F079FE4FF4C06000F047
:1015A40059FD40F2036000F055FD40F2197000F05F
:1015B40051FD01214FF4EA1000F01CFD4FF480733B
:1015C40003224821774800F0C1FC03224FF4007342
:1015D4001821744800F0BAFC754800F019FB28463D
:1015E40004A900F027FB734B04A9714804938DF8F8
:1015F40015408DF81740ADF81A4000F04BFB20461B
:1016040007A900F017FB4FF480338DF82C40A9464E
:101614002C462E4607A8CDE9075509950A9300F0F4
:10162400ADFBCDE9025500950195DFF88C81D8F822
:101634000070BB1BC72B40F2EC8100239B465F4E1E
:101644005F4A338002EBC40A1AF8011B574800F0C2
:1016540036FE0721554800F03AFE0028F9D00BF178
:1016640001035FFA83FBBBF1080FEDD1554AD8F8AB
:10167400003011685B1AB3F5FA7F10D3D8F8003044
:1016840002211360504A47481378B3FA83F35B0985
:1016940013701378002B00F0B58000F0A6FC002333
:1016A4003380D8F800A0D346D8F80030A3EB0B035E
:1016B400C72B07D8D8F80030A3EB0A03B3F5FA7F99
:1016C400C0F0A3800321394800F009FE0221374805
:1016D40000F005FE0121354800F001FE00213348E9
:1016E40000F0FDFD3388338801349BB2522BE4B201
:1016F40000F2AC800F2C40F28B81DFF8D08098F898
:101704000040002C00F084812046FEF71FFE304E7E
:1017140001463068FEF726FF2E4B2F4918600A68F1
:101724002E4B2F481A602F4B2F4A1B6890F800C08D
:10173400B3FBF4F313702D4B2D4A1B68B3FBF4F386
:1017440013702C4B1A682C4B1A6040F215222B4B49
:101754001A802B4A1388BCF1000F00F03B8140F63D
:10176400AB5C634500F23D814FF0000C80F800C093
:101774004FF4617040F6485C6043634581BFC3F534
:101784005D630E33434396208ABFB3FBF0F383B209
:101794009BB227E1FEE700BF0400002000ED00E05B
:1017A40000100140000C01400008014000380140D5
:1017B4000064004000000A033403002030020020CB
:1017C4007024000800020020FC0100201402002004
:1017D4002802002014000020240200202C020020F3
:1017E4001002002020020020100000201C02002013
:1017F4000A000020180200200C000020080000202D
:101804001202002000F0F3FB49E70521644800F0D0
:101814005EFD00283FF448AF614800F054FD338872
:101824009BB2FF2B0FD83388C0B29BB25A1C92B222
:1018340032805C4AD05433889BB2522B3FF642AF7D
:10184400D8F800B030E700233380F4E755490B782B
:101854009C427FF44FAF4B78032B7FF44BAF8B78D4
:101864004E2B7FF447AF91F8523091F8516000202D
:1018740046EA03264AF2010C4FF6FF7311F8012BD6
:101884005340082203F0010E5B08BEF1000F02D0A2
:1018940083EA0C039BB2013A12F0FF02F2D1013049
:1018A40080B25128EAD19E427FF424AF3D4BD978CF
:1018B400187940EA0120597993F8068048EA01280A
:1018C40093F8291093F82A900FFA88F849EA012925
:1018D40093F82D1093F82EA04AEA012A93F82F10BA
:1018E40093F830600FFA8AFA46EA01262E4936B296
:1018F400B1F800E0072101F1010C13F801B013F86D
:101904000CC002314CEA0B2CF44584BFE64601229C
:101914002529F0D112B1244BA3F800E0DFF88CB0F4
:10192400FEF718FD2249FEF71DFEDBF80010FEF756
:101934005DFCCBF800004046DFF878B0FEF70AFD06
:101944001B49FEF70FFEDBF80010FEF74FFC1A4AA6
:101954005FFA8AFA1368F6B253441360174ACBF855
:1019640000001368484633441360FEF7EFFCDFF8C9
:1019740050800646D8F80010FEF7FCFE08B1C8F8FF
:101984000060104A104E137810210133137032682E
:101994000E4B0F481A6000F028FBD6F80090A9E619
:1019A40000380140320200201202002028020020E8
:1019B4000000C84224020020200200201C02002053
:1019C4001802002014020020340300200802002022
:1019D4000010014040F6DD5C63457FF6C9AE01238B
:1019E4000370002376480380C4EB441304EB8303A1
:1019F40000247448DB0003800020734B30601C60BB
:101A0400724B08601C60724B88F8004018601480A8
:101A14003E46704B704A1B6812689B1AB3F57A6F86
:101A240017D96E4B6E4A1A6000226E4B1A604D2213
:101A34006D4B1A7058226D4B1A706D4B6D4A1A60BB
:101A440040F215226C4B1A8000235D4A13805D4AD4
:101A54001380019BFB1AB3F57A7F62D34FF0000821
:101A6400082240F2053007A9CDE90788FFF7A0FC5A
:101A7400614B08221B8840F25130ADF81C30504BAA
:101A840007A91B88ADF81E304E4B1B88ADF82030DB
:101A94004FF4E173ADF82230FFF78AFC524B042275
:101AA4001B7840F255308DF81C30504B07A91B7839
:101AB400CDF81D808DF81E30CDF82080FFF778FC1E
:101AC400464B4E491868ADF82280FEF797FCFEF7A6
:101AD4005BFE444B4A49ADF81C001868FEF78EFCC7
:101AE400FEF752FE424B4649ADF81E001868FEF759
:101AF40085FCFEF749FE0622ADF8200007A940F256
:101B04005630FFF755FCC02302224FF4577007A943
:101B1400CDF81D808DF81C30CDF82080FFF748FCEF
:101B240001972C4FB9F1000F2ED14FF00009354A1F
:101B34003B6812689B1AB3F5FA6F33D23B68029A7A
:101B44009B1AF92B07D93B6820212F4802932DBB00
:101B540000F04BFA0125204A3B6812689B1AB3F542
:101B6400FA6F28D23B68039A9B1AB3F5FA7FFFF405
:101B74005CAD3B6801210393009B2448BBB900F092
:101B840034FA0123009350E53B68A3EB0903312B9E
:101B9400CDD910211C4800F02AFAC6E700F027FA34
:101BA4000025D8E72021184800F01FFAD3E700F0F9
:101BB4001EFA0023E6E70121144800F016FA34E582
:101BC4000E0200200C020020200200201C02002033
:101BD4001802002034030020080200201400002012
:101BE400CDCC50422C020020100000200A0000201E
:101BF4000C00002000003442080000200000C8420D
:101C0400000020410402002000100140000C0140AB
:101C140008B5074B984209D140F2194000F035FA53
:101C2400BDE8084040F2194000F031BA08BD00BFD9
:101C34000064004001B9FEE7032803D8DFE800F0A0
:101C4400030E1923FEE7002302220B808B80CB8036
:101C54000B8140F2FF334A804B8170470123CB81D3
:101C640000230B740B810B804B808B80CB808B818A
:101C7400F2E70023C1F80B30C1F80F30C1E900339B
:101C84000B818B7270470023C1F80B30C1F80F3001
:101C9400CB74F3E7026810B522F002020260026816
:101CA400034642F0010202604FF4803258681C1D62
:101CB400C0075ED5586810F0010059D04A7888787A
:101CC4001206000400F4702002F040720243087807
:101CD40042EA8072C878000500F4E00002434889B3
:101CE4000138C0F309000243DA610A794FF6FF7044
:101CF400012A1A680CBF42F0800222F080021A60A6
:101D04004A79012A1A680CBF42F0400222F04002CC
:101D14001A608A79012A1A680CBF42F0200222F064
:101D240020021A60CA79012A1A680CBF22F0100234
:101D340042F010021A600A7A012A1A680CBF22F0D3
:101D4400080242F008021A604A7A012A1A680CBF93
:101D540042F0040222F004021A601A6822F001021E
:101D64001A602368DB0700D530B9003818BF01209A
:101D740010BD013A9AD19DE70138F2E70121324AB8
:101D840030B5D2F80046438944F00104C2F8004655
:101D9400D2F81C56994025EA0105C2F81C56C5899B
:101DA400CC43002D32D1D2F80C5603F10063254008
:101DB400C2F80C56C588428803F6C84342EA054275
:101DC400DB001A608588028842EA05425A608289EB
:101DD4001D4B7ABBD3F804262240C3F8042602899B
:101DE40062BBD3F814261440C3F81446037C012BB9
:101DF400154B02BFD3F81C260A43C3F81C26D3F89C
:101E0400002622F00102C3F8002630BD012DDED1E8
:101E1400D2F80C5603F100630D43C2F80C56058842
:101E2400428803F6C84342EA0542DB001A6085880B
:101E3400C288C9E7D3F804260A43CEE7D3F81426A8
:101E44000A43C3F81426D1E700600040826870B5E5
:101E54005401034639D48268100138D49A68D200F8
:101E640041D5022003EB0013D3F8802102F00102D4
:101E7400C3F880210A7A4C7A5ABB0D68D3F88021C2
:101E840044EA45541443C3F88041D3F8842122F032
:101E94000F02C3F884218A7A082A84BF08228A722E
:101EA400D3F884418A7A2243C3F88421D1F80B20E1
:101EB400C3F88821D1F80F20C3F88C21D3F88021EE
:101EC40042F00102C3F8802170BD0020CAE701205E
:101ED400C8E74E68D3F8805142EAC60222432A4337
:101EE400C3F88021D1E70320EEE7000001290AD0DE
:101EF400022913D0C9B982680D4B02EA0300934347
:101F040007D10120704780680A4B094A1840904263
:101F140007D8B0FA80F04009400070478068064B4B
:101F2400F3E7C31A5842584170470220704700BF74
:101F34000300000400030008000003108B09185874
:101F440001F01F01C84000F0010070472DE9F04185
:101F5400CD0601F00F0408D5042A01BFC26B44F07A
:101F640003041A43C26318BF144300254FF0010C45
:101F74004FF00F0E0CFA05F61E400DD0AA000768AC
:101F84000EFA02F827EA080704FA02F2282942EABC
:101F9400070222D1466102600135082DEAD10026EC
:101FA4004FF0010C4FF00F0E06F108020CFA02F28A
:101FB4001A400DD0B50047680EFA05F827EA08075D
:101FC40004FA05F5282945EA07050AD14261456066
:101FD4000136082EE8D1BDE8F081482908BF066122
:101FE400D9E7482908BF0261F1E7016170474161FF
:101FF400704700000028164A30B500F44015B4BFFD
:10200400D3695368B5F5401F84B210D1556823F0E5
:10201400E06325F0E065556019B1420D120194406A
:1020240023430B4A0028B4BFD361536030BDC202BE
:102034004DBF0322420D1201C0F303454CBFAA4019
:1020440004FA02F223EA020343F0E063E4E700BF88
:10205400000001400122830903F1804303F50433A6
:10206400196800F01F0082400A431A60704701217A
:10207400830903F1804303F504331A6800F01F0059
:10208400814022EA01021A607047FFF7E3BFFFF7BD
:10209400EEBF0000384BF0B504461F4689B004ADCE
:1020A40003F110062A4618685968083303C2B3427C
:1020B4001546F7D16B4638697168304A03C303C3C8
:1020C4005368C3F38103022B49D15368DF0317D547
:1020D400D36A2B4913F0804F2A4B08BF1946536823
:1020E4009E0300D5490853685068C3F3834310F036
:1020F400006F506806D045000AD443F0100305E091
:102104002149F0E7400026D543F02003013303E0E2
:1021140043F030033F2BF9D101FB03F053685168BE
:10212400C3F30313526820336B44C1F30221C2F397
:10213400C22213F8103C2031203269446A4411F859
:10214400201C12F8182C20FA03F3032C09D8DFE81A
:1021540004F0090B0D100F2BD8D00233DCE709482B
:10216400DCE7002009B0F0BD1846FBE723FA01F0D4
:10217400F8E723FA02F0F5E75824000800100240BB
:10218400006CDC0200127A0000093D0008B51D4B0A
:10219400984228D008D8A3F50063984215D003F5D7
:1021A4008063984218D008BD174B984222D003F59B
:1021B40068439842F7D140F20E30FFF766FF40F2D1
:1021C4000E30BDE80840FFF762BF40F21140FFF750
:1021D4005CFF40F21140F4E740F21240FFF755FF74
:1021E40040F21240EDE740F21340FFF74EFF40F299
:1021F4001340E6E740F21440FFF747FF40F2144073
:10220400DFE700BF004C00400050004038B5114BE0
:10221400044698420D461BD009D8A3F500639842A2
:1022240016D003F58063984212D0002009E00A4BCF
:1022340098420DD003F568439842F6D10320FFF786
:1022440029FF00EB5501B1FBF5F189B2A16038BD5E
:102254000220F4E7004C004000500040C36823F41F
:10226400C063C360C3680B43C3607047C36823F48F
:102274008053C360C3680B43C3607047036923F48E
:102284004053036103690B4303617047C36843F41C
:102294000053C3607047C36801F0080123F00803CA
:1022A400C360C3681943C1607047C36801F0040187
:1022B40023F00403C360C3681943C1607047C1F3CA
:1022C4000801416070474068C0F3080070478B09FB
:1022D400185801F01F01C84000F0010070470123A5
:1022E4008A0901F01F018B40DB4313507047000043
:1022F400FEF794FF0B480C490C4A002302E0D45823
:10230400C4500433C4188C42F9D3094A094C00233D
:1023140001E013600432A242FBD300F05DF8FFF742
:10232400ABF870470000002068000020002500087A
:102334006800002074040020FEE708B500F000F8EF
:10234400062008B500F02CF80120FFF725F81F2916
:1023540038B505460C4604D9162303604FF0FF3008
:1023640038BDC26B12B152F821304BB9284600F087
:1023740031F8224601462846BDE8384000F018B836
:10238400012B0AD0591C03D1162303600120E7E76F
:102394000021204642F8241098470020E0E700007E
:1023A400024B01461868FFF7D2BF00BF1800002097
:1023B40038B50023064D0446084611462B60FEF747
:1023C400EDFF431C02D12B6803B1236038BD00BF6D
:1023D40070040020FEF7EABF70B500260C4D0D4CCA
:1023E400641BA410A64209D100F028F800260A4D67
:1023F4000A4C641BA410A64205D170BD55F8043BD9
:1024040098470136EEE755F8043B98470136F2E762
:10241400F0240008F0240008F0240008F824000840
:102424000A44914200F1FF3300D1704710B511F80E
:10243400014B914203F8014FF9D110BDF8B500BF2B
:10244400F8BC08BC9E467047F8B500BFF8BC08BC91
:042454009E467047E9
:10245800000000000000000001020304060708094C
:10246800000000000102030401030000002705D05A
:1024780002030000002705E30303000000270432DD
:102488000403000000270585050300000027045405
:10249800060300000027046707030000002705B6AD
:1024A80008030000002705490903000000270498D5
:1024B8000A030000002704AB0B0300000027057A7D
:1024C8000C030000002704CD0D0300000027051CA5
:1024D8000E0300000027052F0F030000002704FE4D
:0824E80010030000002706911B
:0824F000F10700082D1100089E
:0824F800CD07000805120008E1
:102500000100000000127A00150258000000344259
:102510004D000000CDCC50421C0000200000000007
:1025200038030020A0030020080400200000000061
:10253000000000000000000000000000000000009B
:10254000000000000000000000000000000000008B
:10255000000000000000000000000000000000007B
:08256000000000000000000073
:04000005080022F5D8
:00000001FF
